{
  "_format": "hh-sol-artifact-1",
  "contractName": "CrescoWalletFactory",
  "sourceName": "contracts/CrescoWallet/CrescoWalletFactory.sol",
  "abi": [
    {
      "inputs": [
        {
          "internalType": "contract IEntryPoint",
          "name": "_entryPoint",
          "type": "address"
        }
      ],
      "stateMutability": "nonpayable",
      "type": "constructor"
    },
    {
      "inputs": [
        {
          "internalType": "address[]",
          "name": "owners",
          "type": "address[]"
        },
        {
          "internalType": "uint256",
          "name": "salt",
          "type": "uint256"
        }
      ],
      "name": "createAccount",
      "outputs": [
        {
          "internalType": "contract CrescoWallet",
          "name": "",
          "type": "address"
        }
      ],
      "stateMutability": "nonpayable",
      "type": "function"
    },
    {
      "inputs": [],
      "name": "entryPoint",
      "outputs": [
        {
          "internalType": "contract IEntryPoint",
          "name": "",
          "type": "address"
        }
      ],
      "stateMutability": "view",
      "type": "function"
    },
    {
      "inputs": [
        {
          "internalType": "address[]",
          "name": "owners",
          "type": "address[]"
        },
        {
          "internalType": "uint256",
          "name": "salt",
          "type": "uint256"
        }
      ],
      "name": "getAddress",
      "outputs": [
        {
          "internalType": "address",
          "name": "",
          "type": "address"
        }
      ],
      "stateMutability": "view",
      "type": "function"
    },
    {
      "inputs": [],
      "name": "walletImplementation",
      "outputs": [
        {
          "internalType": "contract CrescoWallet",
          "name": "",
          "type": "address"
        }
      ],
      "stateMutability": "view",
      "type": "function"
    }
  ],
  "bytecode": "0x60a060405234801561001057600080fd5b5060405161437138038061437183398101604081905261002f916100a4565b600080546001600160a01b0319166001600160a01b038316179055604051819061005890610097565b6001600160a01b039091168152602001604051809103906000f080158015610084573d6000803e3d6000fd5b506001600160a01b0316608052506100d4565b61377480610bfd83390190565b6000602082840312156100b657600080fd5b81516001600160a01b03811681146100cd57600080fd5b9392505050565b608051610b016100fc600039600081816056015281816101c4015261038a0152610b016000f3fe608060405234801561001057600080fd5b506004361061004c5760003560e01c80638117abc11461005157806394f7e8e0146100a1578063b0d691fe146100b4578063b54c02f2146100d4575b600080fd5b6100787f000000000000000000000000000000000000000000000000000000000000000081565b60405173ffffffffffffffffffffffffffffffffffffffff909116815260200160405180910390f35b6100786100af366004610490565b6100e7565b6000546100789073ffffffffffffffffffffffffffffffffffffffff1681565b6100786100e2366004610490565b6102a0565b6000805460405182917f462d0b2e45a8db91634620419491c0617c19900c5710ca61668d5ed8b2e18f449161013991879173ffffffffffffffffffffffffffffffffffffffff90911690602401610579565b604080517fffffffffffffffffffffffffffffffffffffffffffffffffffffffffffffffe0818403018152918152602080830180517bffffffffffffffffffffffffffffffffffffffffffffffffffffffff167fffffffff0000000000000000000000000000000000000000000000000000000090951694909417909352519092506000916101ec917f000000000000000000000000000000000000000000000000000000000000000091859101610617565b604051602081830303815290604052905060006040518060200161020f9061042b565b7fffffffffffffffffffffffffffffffffffffffffffffffffffffffffffffffe082820381018352601f90910116604081905261025191908490602001610685565b604080517fffffffffffffffffffffffffffffffffffffffffffffffffffffffffffffffe08184030181529190528051602082012090915061029386826103ed565b9450505050505b92915050565b6000806102ad84846100e7565b905073ffffffffffffffffffffffffffffffffffffffff81163b80156102d55750905061029a565b600080546040517f462d0b2e45a8db91634620419491c0617c19900c5710ca61668d5ed8b2e18f449161032391899173ffffffffffffffffffffffffffffffffffffffff1690602401610579565b604051602081830303815290604052907bffffffffffffffffffffffffffffffffffffffffffffffffffffffff19166020820180517bffffffffffffffffffffffffffffffffffffffffffffffffffffffff8381831617835250505050905060008560001b7f0000000000000000000000000000000000000000000000000000000000000000836040516103b69061042b565b6103c1929190610617565b8190604051809103906000f59050801580156103e1573d6000803e3d6000fd5b50979650505050505050565b60006103fa838330610401565b9392505050565b6000604051836040820152846020820152828152600b8101905060ff815360559020949350505050565b610417806106b583390190565b7f4e487b7100000000000000000000000000000000000000000000000000000000600052604160045260246000fd5b803573ffffffffffffffffffffffffffffffffffffffff8116811461048b57600080fd5b919050565b600080604083850312156104a357600080fd5b823567ffffffffffffffff808211156104bb57600080fd5b818501915085601f8301126104cf57600080fd5b81356020828211156104e3576104e3610438565b8160051b6040517fffffffffffffffffffffffffffffffffffffffffffffffffffffffffffffffe0603f8301168101818110868211171561052657610526610438565b60405292835281830193508481018201928984111561054457600080fd5b948201945b838610156105695761055a86610467565b85529482019493820193610549565b9997909101359750505050505050565b604080825283519082018190526000906020906060840190828701845b828110156105c857815173ffffffffffffffffffffffffffffffffffffffff1684529284019290840190600101610596565b505050809250505073ffffffffffffffffffffffffffffffffffffffff831660208301529392505050565b60005b8381101561060e5781810151838201526020016105f6565b50506000910152565b73ffffffffffffffffffffffffffffffffffffffff8316815260406020820152600082518060408401526106528160608501602087016105f3565b601f017fffffffffffffffffffffffffffffffffffffffffffffffffffffffffffffffe016919091016060019392505050565b600083516106978184602088016105f3565b8351908301906106ab8183602088016105f3565b0194935050505056fe608060405260405161041738038061041783398101604081905261002291610268565b61002c8282610033565b5050610352565b61003c82610092565b6040516001600160a01b038316907fbc7cd75a20ee27fd9adebab32041f755214dbc6bffa90cc0225b39da2e5c2d3b90600090a280511561008657610081828261010e565b505050565b61008e610185565b5050565b806001600160a01b03163b6000036100cd57604051634c9c8ce360e01b81526001600160a01b03821660048201526024015b60405180910390fd5b7f360894a13ba1a3210667c828492db98dca3e2076cc3735a920a3ca505d382bbc80546001600160a01b0319166001600160a01b0392909216919091179055565b6060600080846001600160a01b03168460405161012b9190610336565b600060405180830381855af49150503d8060008114610166576040519150601f19603f3d011682016040523d82523d6000602084013e61016b565b606091505b50909250905061017c8583836101a6565b95945050505050565b34156101a45760405163b398979f60e01b815260040160405180910390fd5b565b6060826101bb576101b682610205565b6101fe565b81511580156101d257506001600160a01b0384163b155b156101fb57604051639996b31560e01b81526001600160a01b03851660048201526024016100c4565b50805b9392505050565b8051156102155780518082602001fd5b604051630a12f52160e11b815260040160405180910390fd5b634e487b7160e01b600052604160045260246000fd5b60005b8381101561025f578181015183820152602001610247565b50506000910152565b6000806040838503121561027b57600080fd5b82516001600160a01b038116811461029257600080fd5b60208401519092506001600160401b03808211156102af57600080fd5b818501915085601f8301126102c357600080fd5b8151818111156102d5576102d561022e565b604051601f8201601f19908116603f011681019083821181831017156102fd576102fd61022e565b8160405282815288602084870101111561031657600080fd5b610327836020830160208801610244565b80955050505050509250929050565b60008251610348818460208701610244565b9190910192915050565b60b7806103606000396000f3fe6080604052600a600c565b005b60186014601a565b605e565b565b600060597f360894a13ba1a3210667c828492db98dca3e2076cc3735a920a3ca505d382bbc5473ffffffffffffffffffffffffffffffffffffffff1690565b905090565b3660008037600080366000845af43d6000803e808015607c573d6000f35b3d6000fdfea26469706673582212207042471a4e32f5132da38c321d31c563e1fbb20beab69e917585f7c4d9e93cc464736f6c63430008170033a2646970667358221220eea99d9a5cc9e616834113a1a3c030b76a43d5856241f54966fe47c826dafd3564736f6c6343000817003360a06040523060805262015180600b553480156200001c57600080fd5b5060405162003774380380620037748339810160408190526200003f9162000124565b600380546001600160a01b0319166001600160a01b03831617905560016002556200006962000070565b5062000156565b7ff0c57e16840df040f15088dc2f81fe391c3923bec73e23a9662efc9c229c6a00805468010000000000000000900460ff1615620000c15760405163f92ee8a960e01b815260040160405180910390fd5b80546001600160401b0390811614620001215780546001600160401b0319166001600160401b0390811782556040519081527fc7f505b2f371ae2175ee4913f4499e1f2633a7b5936321eed1cdaeb6115181d29060200160405180910390a15b50565b6000602082840312156200013757600080fd5b81516001600160a01b03811681146200014f57600080fd5b9392505050565b6080516135f462000180600039600081816122f30152818161231c015261253d01526135f46000f3fe6080604052600436106102385760003560e01c806372229ee011610138578063c399ec88116100b0578063f23a6e611161007f578063f5297f8811610064578063f5297f8814610723578063f560c73414610753578063fb9b38be1461077357600080fd5b8063f23a6e61146106bd578063f30d76a31461070357600080fd5b8063c399ec8814610646578063c5050f571461065b578063c89ec68a14610688578063d087d288146106a857600080fd5b8063ad3cb1cc11610107578063b61d27f6116100ec578063b61d27f6146105c8578063ba31b2dc146105e8578063bc197c81146105fe57600080fd5b8063ad3cb1cc14610547578063b0d691fe1461059d57600080fd5b806372229ee0146104e257806382e717f7146104f7578063a526d83b1461050d578063a789d0201461052d57600080fd5b80633a871cdd116101cb5780634a58db191161019a5780634f1ef2861161017f5780634f1ef2861461049a57806352d1902d146104ad57806371404156146104c257600080fd5b80634a58db19146104725780634d44560d1461047a57600080fd5b80633a871cdd146103fc57806342cde4e81461041c578063462d0b2e1461043257806347e1da2a1461045257600080fd5b80630ce03f2d116102075780630ce03f2d146103055780630fc8c4ed14610329578063150b7a02146103565780632f54bf6e146103cc57600080fd5b806301ffc9a714610244578063025e7c27146102795780630ba234d6146102be5780630c68ba21146102d557600080fd5b3661023f57005b600080fd5b34801561025057600080fd5b5061026461025f366004612b66565b6107a0565b60405190151581526020015b60405180910390f35b34801561028557600080fd5b50610299610294366004612ba8565b610885565b60405173ffffffffffffffffffffffffffffffffffffffff9091168152602001610270565b3480156102ca57600080fd5b506102d36108bc565b005b3480156102e157600080fd5b506102646102f0366004612bf3565b60056020526000908152604090205460ff1681565b34801561031157600080fd5b5061031b600b5481565b604051908152602001610270565b34801561033557600080fd5b506007546102999073ffffffffffffffffffffffffffffffffffffffff1681565b34801561036257600080fd5b5061039b610371366004612c59565b7f150b7a020000000000000000000000000000000000000000000000000000000095945050505050565b6040517fffffffff000000000000000000000000000000000000000000000000000000009091168152602001610270565b3480156103d857600080fd5b506102646103e7366004612bf3565b60016020526000908152604090205460ff1681565b34801561040857600080fd5b5061031b610417366004612ccc565b6109d8565b34801561042857600080fd5b5061031b60025481565b34801561043e57600080fd5b506102d361044d366004612d9e565b6109fe565b34801561045e57600080fd5b506102d361046d366004612ea7565b610b80565b6102d3610d20565b34801561048657600080fd5b506102d3610495366004612f41565b610dbe565b6102d36104a8366004612ffb565b610e65565b3480156104b957600080fd5b5061031b610e84565b3480156104ce57600080fd5b506102d36104dd366004612bf3565b610eb3565b3480156104ee57600080fd5b506102d3611134565b34801561050357600080fd5b5061031b60065481565b34801561051957600080fd5b506102d3610528366004612bf3565b611530565b34801561053957600080fd5b50600c546102649060ff1681565b34801561055357600080fd5b506105906040518060400160405280600581526020017f352e302e3000000000000000000000000000000000000000000000000000000081525081565b60405161027091906130b9565b3480156105a957600080fd5b5060035473ffffffffffffffffffffffffffffffffffffffff16610299565b3480156105d457600080fd5b506102d36105e33660046130cc565b61169a565b3480156105f457600080fd5b5061031b600a5481565b34801561060a57600080fd5b5061039b610619366004613128565b7fbc197c810000000000000000000000000000000000000000000000000000000098975050505050505050565b34801561065257600080fd5b5061031b6116e9565b34801561066757600080fd5b506008546102999073ffffffffffffffffffffffffffffffffffffffff1681565b34801561069457600080fd5b506102d36106a33660046131e7565b6117a0565b3480156106b457600080fd5b5061031b611ac6565b3480156106c957600080fd5b5061039b6106d8366004613220565b7ff23a6e61000000000000000000000000000000000000000000000000000000009695505050505050565b34801561070f57600080fd5b506102d361071e366004612bf3565b611b42565b34801561072f57600080fd5b5061026461073e366004612bf3565b60096020526000908152604090205460ff1681565b34801561075f57600080fd5b5061029961076e366004612ba8565b611b91565b34801561077f57600080fd5b5061079361078e36600461328a565b611ba1565b60405161027091906132c7565b60007fffffffff0000000000000000000000000000000000000000000000000000000082167f150b7a0200000000000000000000000000000000000000000000000000000000148061083357507fffffffff0000000000000000000000000000000000000000000000000000000082167f4e2312e000000000000000000000000000000000000000000000000000000000145b8061087f57507fffffffff0000000000000000000000000000000000000000000000000000000082167f01ffc9a700000000000000000000000000000000000000000000000000000000145b92915050565b6000818154811061089557600080fd5b60009182526020909120015473ffffffffffffffffffffffffffffffffffffffff16905081565b6108c4611d82565b600c5460ff16610935576040517f08c379a000000000000000000000000000000000000000000000000000000000815260206004820152601560248201527f4e6f207265636f7665727920746f2063616e63656c000000000000000000000060448201526064015b60405180910390fd5b600c80547fffffffffffffffffffffffffffffffffffffffffffffffffffffffffffffff0016905560085460405173ffffffffffffffffffffffffffffffffffffffff909116907f8154b6c5e1fc90d44b49808ef93f9739148d0821411890f8cd684385e24b9f1e90600090a2600880547fffffffffffffffffffffffff0000000000000000000000000000000000000000908116909155600780549091169055565b60006109e2611e07565b6109ec8484611e88565b90506109f782611fff565b9392505050565b7ff0c57e16840df040f15088dc2f81fe391c3923bec73e23a9662efc9c229c6a00805468010000000000000000810460ff16159067ffffffffffffffff16600081158015610a495750825b905060008267ffffffffffffffff166001148015610a665750303b155b905081158015610a74575080155b15610aab576040517ff92ee8a900000000000000000000000000000000000000000000000000000000815260040160405180910390fd5b84547fffffffffffffffffffffffffffffffffffffffffffffffff00000000000000001660011785558315610b0c5784547fffffffffffffffffffffffffffffffffffffffffffffff00ffffffffffffffff16680100000000000000001785555b610b16878761206a565b8315610b775784547fffffffffffffffffffffffffffffffffffffffffffffff00ffffffffffffffff168555604051600181527fc7f505b2f371ae2175ee4913f4499e1f2633a7b5936321eed1cdaeb6115181d29060200160405180910390a15b50505050505050565b610b886121c3565b8481148015610b9e5750821580610b9e57508281145b610c04576040517f08c379a000000000000000000000000000000000000000000000000000000000815260206004820152601360248201527f77726f6e67206172726179206c656e6774687300000000000000000000000000604482015260640161092c565b6000839003610cb05760005b85811015610caa57610ca2878783818110610c2d57610c2d613349565b9050602002016020810190610c429190612bf3565b6000858585818110610c5657610c56613349565b9050602002810190610c689190613378565b8080601f01602080910402602001604051908101604052809392919081815260200183838082843760009201919091525061225e92505050565b600101610c10565b50610d18565b60005b85811015610b7757610d10878783818110610cd057610cd0613349565b9050602002016020810190610ce59190612bf3565b868684818110610cf757610cf7613349565b90506020020135858585818110610c5657610c56613349565b600101610cb3565b505050505050565b60035473ffffffffffffffffffffffffffffffffffffffff166040517fb760faf900000000000000000000000000000000000000000000000000000000815230600482015273ffffffffffffffffffffffffffffffffffffffff919091169063b760faf99034906024016000604051808303818588803b158015610da357600080fd5b505af1158015610db7573d6000803e3d6000fd5b5050505050565b610dc6611d82565b60035473ffffffffffffffffffffffffffffffffffffffff166040517f205c287800000000000000000000000000000000000000000000000000000000815273ffffffffffffffffffffffffffffffffffffffff848116600483015260248201849052919091169063205c287890604401600060405180830381600087803b158015610e5157600080fd5b505af1158015610d18573d6000803e3d6000fd5b610e6d6122db565b610e76826123df565b610e8082826123e7565b5050565b6000610e8e612525565b507f360894a13ba1a3210667c828492db98dca3e2076cc3735a920a3ca505d382bbc90565b610ebb611d82565b73ffffffffffffffffffffffffffffffffffffffff811660009081526005602052604090205460ff16610f4a576040517f08c379a000000000000000000000000000000000000000000000000000000000815260206004820152600e60248201527f4e6f74206120677561726469616e000000000000000000000000000000000000604482015260640161092c565b60005b6004548110156110bf578173ffffffffffffffffffffffffffffffffffffffff1660048281548110610f8157610f81613349565b60009182526020909120015473ffffffffffffffffffffffffffffffffffffffff16036110b75760048054610fb89060019061340c565b81548110610fc857610fc8613349565b6000918252602090912001546004805473ffffffffffffffffffffffffffffffffffffffff909216918390811061100157611001613349565b9060005260206000200160006101000a81548173ffffffffffffffffffffffffffffffffffffffff021916908373ffffffffffffffffffffffffffffffffffffffff160217905550600480548061105a5761105a61341f565b60008281526020902081017fffffffffffffffffffffffffffffffffffffffffffffffffffffffffffffffff90810180547fffffffffffffffffffffffff00000000000000000000000000000000000000001690550190556110bf565b600101610f4d565b5073ffffffffffffffffffffffffffffffffffffffff811660008181526005602052604080822080547fffffffffffffffffffffffffffffffffffffffffffffffffffffffffffffff00169055517fb8107d0c6b40be480ce3172ee66ba6d64b71f6b1685a851340036e6e2e3e3c529190a250565b3360009081526005602052604090205460ff166111ad576040517f08c379a000000000000000000000000000000000000000000000000000000000815260206004820152600e60248201527f4e6f74206120677561726469616e000000000000000000000000000000000000604482015260640161092c565b600c5460ff16611219576040517f08c379a000000000000000000000000000000000000000000000000000000000815260206004820152601660248201527f4e6f207265636f7665727920696e2070726f6365737300000000000000000000604482015260640161092c565b600b54600a54611229919061344e565b421015611292576040517f08c379a000000000000000000000000000000000000000000000000000000000815260206004820152601d60248201527f5265636f766572792074696d65206c6f636b206e6f7420706173736564000000604482015260640161092c565b33600090815260096020526040812080547fffffffffffffffffffffffffffffffffffffffffffffffffffffffffffffff00166001179055805b60045481101561133d5760096000600483815481106112ed576112ed613349565b600091825260208083209091015473ffffffffffffffffffffffffffffffffffffffff16835282019290925260400190205460ff1615611335578161133181613461565b9250505b6001016112cc565b50600654811061152d5760005b600054811015611483576008546000805473ffffffffffffffffffffffffffffffffffffffff909216918390811061138457611384613349565b60009182526020909120015473ffffffffffffffffffffffffffffffffffffffff160361147b576007546000805473ffffffffffffffffffffffffffffffffffffffff90921691839081106113db576113db613349565b600091825260208083209190910180547fffffffffffffffffffffffff00000000000000000000000000000000000000001673ffffffffffffffffffffffffffffffffffffffff94851617905560085483168252600190819052604080832080547fffffffffffffffffffffffffffffffffffffffffffffffffffffffffffffff0090811690915560075490941683529091208054909216179055611483565b60010161134a565b5060075460085460405173ffffffffffffffffffffffffffffffffffffffff92831692909116907fb532073b38c83145e3e5135377a08bf9aab55bc0fd7c1179cd4fb995d2a5159c90600090a3600880547fffffffffffffffffffffffff0000000000000000000000000000000000000000908116909155600780549091169055600c80547fffffffffffffffffffffffffffffffffffffffffffffffffffffffffffffff001690555b50565b611538611d82565b73ffffffffffffffffffffffffffffffffffffffff811660009081526005602052604090205460ff16156115c8576040517f08c379a000000000000000000000000000000000000000000000000000000000815260206004820152601760248201527f477561726469616e20616c726561647920657869737473000000000000000000604482015260640161092c565b6004805460018082019092557f8a35acfbc15ff81a39ae7d344fd709f28e8600b4aa8c65c6b64bfe7fe36bd19b0180547fffffffffffffffffffffffff00000000000000000000000000000000000000001673ffffffffffffffffffffffffffffffffffffffff841690811790915560008181526005602052604080822080547fffffffffffffffffffffffffffffffffffffffffffffffffffffffffffffff0016909417909355915190917f038596bb31e2e7d3d9f184d4c98b310103f6d7f5830e5eec32bffe6f1728f96991a250565b6116a26121c3565b6116e3848484848080601f01602080910402602001604051908101604052809392919081815260200183838082843760009201919091525061225e92505050565b50505050565b600061170a60035473ffffffffffffffffffffffffffffffffffffffff1690565b6040517f70a0823100000000000000000000000000000000000000000000000000000000815230600482015273ffffffffffffffffffffffffffffffffffffffff91909116906370a08231906024015b602060405180830381865afa158015611777573d6000803e3d6000fd5b505050506040513d601f19601f8201168201806040525081019061179b9190613499565b905090565b3360009081526005602052604090205460ff16611819576040517f08c379a000000000000000000000000000000000000000000000000000000000815260206004820152600e60248201527f4e6f74206120677561726469616e000000000000000000000000000000000000604482015260640161092c565b73ffffffffffffffffffffffffffffffffffffffff821660009081526001602052604090205460ff166118a8576040517f08c379a000000000000000000000000000000000000000000000000000000000815260206004820152600c60248201527f4e6f7420616e206f776e65720000000000000000000000000000000000000000604482015260640161092c565b600c5460ff1615611915576040517f08c379a000000000000000000000000000000000000000000000000000000000815260206004820152601760248201527f5265636f7665727920616c726561647920616374697665000000000000000000604482015260640161092c565b6007805473ffffffffffffffffffffffffffffffffffffffff8084167fffffffffffffffffffffffff000000000000000000000000000000000000000092831617909255600880549285169290911691909117905542600a55600c80547fffffffffffffffffffffffffffffffffffffffffffffffffffffffffffffff0016600117905560005b600454811015611a2657600060096000600484815481106119bf576119bf613349565b60009182526020808320919091015473ffffffffffffffffffffffffffffffffffffffff168352820192909252604001902080547fffffffffffffffffffffffffffffffffffffffffffffffffffffffffffffff001691151591909117905560010161199c565b5033600090815260096020526040902080547fffffffffffffffffffffffffffffffffffffffffffffffffffffffffffffff00166001179055600454611a6e906002906134e1565b611a7990600161344e565b60065560405173ffffffffffffffffffffffffffffffffffffffff80831691908416907f20039e6a2553e89f3640f5f470e48b2a7a5b026ae754b426d92b54ba2fc192c890600090a35050565b6000611ae760035473ffffffffffffffffffffffffffffffffffffffff1690565b6040517f35567e1a0000000000000000000000000000000000000000000000000000000081523060048201526000602482015273ffffffffffffffffffffffffffffffffffffffff91909116906335567e1a9060440161175a565b611b4a6121c3565b600380547fffffffffffffffffffffffff00000000000000000000000000000000000000001673ffffffffffffffffffffffffffffffffffffffff92909216919091179055565b6004818154811061089557600080fd5b606060418251611bb191906134f5565b15611c3e576040517f08c379a000000000000000000000000000000000000000000000000000000000815260206004820152602160248201527f496e76616c696420656e636f646564207369676e617475726573206c656e677460448201527f6800000000000000000000000000000000000000000000000000000000000000606482015260840161092c565b600060418351611c4e91906134e1565b90508067ffffffffffffffff811115611c6957611c69612d20565b604051908082528060200260200182016040528015611c9c57816020015b6060815260200190600190039081611c875790505b50915060005b81811015611d7b576040805160418082526080820190925260009160208201818036833701905050905060005b6041811015611d53578581611ce5856041613509565b611cef919061344e565b81518110611cff57611cff613349565b602001015160f81c60f81b828281518110611d1c57611d1c613349565b60200101907effffffffffffffffffffffffffffffffffffffffffffffffffffffffffffff1916908160001a905350600101611ccf565b5080848381518110611d6757611d67613349565b602090810291909101015250600101611ca2565b5050919050565b3360009081526001602052604090205460ff1680611d9f57503330145b611e05576040517f08c379a000000000000000000000000000000000000000000000000000000000815260206004820152600a60248201527f6f6e6c79206f776e657200000000000000000000000000000000000000000000604482015260640161092c565b565b60035473ffffffffffffffffffffffffffffffffffffffff163314611e05576040517f08c379a000000000000000000000000000000000000000000000000000000000815260206004820152601c60248201527f6163636f756e743a206e6f742066726f6d20456e747279506f696e7400000000604482015260640161092c565b7f19457468657265756d205369676e6564204d6573736167653a0a3332000000006000908152601c829052603c81206000611f04611eca610140870187613378565b8080601f016020809104026020016040519081016040528093929190818152602001838380828437600092019190915250611ba192505050565b905060025481511015611f73576040517f08c379a000000000000000000000000000000000000000000000000000000000815260206004820152601560248201527f4e6f7420656e6f756768207369676e6174757265730000000000000000000000604482015260640161092c565b60005b8151811015611ff3576000611fad838381518110611f9657611f96613349565b60200260200101518561259490919063ffffffff16565b73ffffffffffffffffffffffffffffffffffffffff811660009081526001602052604090205490915060ff16611fea57600194505050505061087f565b50600101611f76565b50600095945050505050565b801561152d5760405160009033907fffffffffffffffffffffffffffffffffffffffffffffffffffffffffffffffff90849084818181858888f193505050503d8060008114610db7576040519150601f19603f3d011682016040523d82523d6000602084013e610db7565b815161207d906000906020850190612ac7565b506002825161208c91906134e1565b61209790600161344e565b60025560005b82518110156121225760018060008584815181106120bd576120bd613349565b60209081029190910181015173ffffffffffffffffffffffffffffffffffffffff16825281019190915260400160002080547fffffffffffffffffffffffffffffffffffffffffffffffffffffffffffffff001691151591909117905560010161209d565b50600380547fffffffffffffffffffffffff00000000000000000000000000000000000000001673ffffffffffffffffffffffffffffffffffffffff831617905560405161217290600090613520565b604051908190038120600354909173ffffffffffffffffffffffffffffffffffffffff909116907feb52ada33c41827d04abacad5af72f45b2ec44c25a116567c3fb1ee20164e18590600090a35050565b60035473ffffffffffffffffffffffffffffffffffffffff163314806121f857503360009081526001602052604090205460ff165b611e05576040517f08c379a000000000000000000000000000000000000000000000000000000000815260206004820181905260248201527f6163636f756e743a206e6f74204f776e6572206f7220456e747279506f696e74604482015260640161092c565b6000808473ffffffffffffffffffffffffffffffffffffffff1684846040516122879190613573565b60006040518083038185875af1925050503d80600081146122c4576040519150601f19603f3d011682016040523d82523d6000602084013e6122c9565b606091505b509150915081610db757805160208201fd5b3073ffffffffffffffffffffffffffffffffffffffff7f00000000000000000000000000000000000000000000000000000000000000001614806123a857507f000000000000000000000000000000000000000000000000000000000000000073ffffffffffffffffffffffffffffffffffffffff1661238f7f360894a13ba1a3210667c828492db98dca3e2076cc3735a920a3ca505d382bbc5473ffffffffffffffffffffffffffffffffffffffff1690565b73ffffffffffffffffffffffffffffffffffffffff1614155b15611e05576040517fe07c8dba00000000000000000000000000000000000000000000000000000000815260040160405180910390fd5b61152d611d82565b8173ffffffffffffffffffffffffffffffffffffffff166352d1902d6040518163ffffffff1660e01b8152600401602060405180830381865afa92505050801561246c575060408051601f3d9081017fffffffffffffffffffffffffffffffffffffffffffffffffffffffffffffffe016820190925261246991810190613499565b60015b6124ba576040517f4c9c8ce300000000000000000000000000000000000000000000000000000000815273ffffffffffffffffffffffffffffffffffffffff8316600482015260240161092c565b7f360894a13ba1a3210667c828492db98dca3e2076cc3735a920a3ca505d382bbc8114612516576040517faa1d49a40000000000000000000000000000000000000000000000000000000081526004810182905260240161092c565b61252083836125be565b505050565b3073ffffffffffffffffffffffffffffffffffffffff7f00000000000000000000000000000000000000000000000000000000000000001614611e05576040517fe07c8dba00000000000000000000000000000000000000000000000000000000815260040160405180910390fd5b6000806000806125a48686612621565b9250925092506125b4828261266e565b5090949350505050565b6125c782612772565b60405173ffffffffffffffffffffffffffffffffffffffff8316907fbc7cd75a20ee27fd9adebab32041f755214dbc6bffa90cc0225b39da2e5c2d3b90600090a2805115612619576125208282612841565b610e806128c4565b6000806000835160410361265b5760208401516040850151606086015160001a61264d888285856128fc565b955095509550505050612667565b50508151600091506002905b9250925092565b60008260038111156126825761268261358f565b0361268b575050565b600182600381111561269f5761269f61358f565b036126d6576040517ff645eedf00000000000000000000000000000000000000000000000000000000815260040160405180910390fd5b60028260038111156126ea576126ea61358f565b03612724576040517ffce698f70000000000000000000000000000000000000000000000000000000081526004810182905260240161092c565b60038260038111156127385761273861358f565b03610e80576040517fd78bce0c0000000000000000000000000000000000000000000000000000000081526004810182905260240161092c565b8073ffffffffffffffffffffffffffffffffffffffff163b6000036127db576040517f4c9c8ce300000000000000000000000000000000000000000000000000000000815273ffffffffffffffffffffffffffffffffffffffff8216600482015260240161092c565b7f360894a13ba1a3210667c828492db98dca3e2076cc3735a920a3ca505d382bbc80547fffffffffffffffffffffffff00000000000000000000000000000000000000001673ffffffffffffffffffffffffffffffffffffffff92909216919091179055565b60606000808473ffffffffffffffffffffffffffffffffffffffff168460405161286b9190613573565b600060405180830381855af49150503d80600081146128a6576040519150601f19603f3d011682016040523d82523d6000602084013e6128ab565b606091505b50915091506128bb8583836129f6565b95945050505050565b3415611e05576040517fb398979f00000000000000000000000000000000000000000000000000000000815260040160405180910390fd5b600080807f7fffffffffffffffffffffffffffffff5d576e7357a4501ddfe92f46681b20a084111561293757506000915060039050826129ec565b604080516000808252602082018084528a905260ff891692820192909252606081018790526080810186905260019060a0016020604051602081039080840390855afa15801561298b573d6000803e3d6000fd5b50506040517fffffffffffffffffffffffffffffffffffffffffffffffffffffffffffffffe0015191505073ffffffffffffffffffffffffffffffffffffffff81166129e2575060009250600191508290506129ec565b9250600091508190505b9450945094915050565b606082612a0b57612a0682612a85565b6109f7565b8151158015612a2f575073ffffffffffffffffffffffffffffffffffffffff84163b155b15612a7e576040517f9996b31500000000000000000000000000000000000000000000000000000000815273ffffffffffffffffffffffffffffffffffffffff8516600482015260240161092c565b50806109f7565b805115612a955780518082602001fd5b6040517f1425ea4200000000000000000000000000000000000000000000000000000000815260040160405180910390fd5b828054828255906000526020600020908101928215612b41579160200282015b82811115612b4157825182547fffffffffffffffffffffffff00000000000000000000000000000000000000001673ffffffffffffffffffffffffffffffffffffffff909116178255602090920191600190910190612ae7565b50612b4d929150612b51565b5090565b5b80821115612b4d5760008155600101612b52565b600060208284031215612b7857600080fd5b81357fffffffff00000000000000000000000000000000000000000000000000000000811681146109f757600080fd5b600060208284031215612bba57600080fd5b5035919050565b73ffffffffffffffffffffffffffffffffffffffff8116811461152d57600080fd5b8035612bee81612bc1565b919050565b600060208284031215612c0557600080fd5b81356109f781612bc1565b60008083601f840112612c2257600080fd5b50813567ffffffffffffffff811115612c3a57600080fd5b602083019150836020828501011115612c5257600080fd5b9250929050565b600080600080600060808688031215612c7157600080fd5b8535612c7c81612bc1565b94506020860135612c8c81612bc1565b935060408601359250606086013567ffffffffffffffff811115612caf57600080fd5b612cbb88828901612c10565b969995985093965092949392505050565b600080600060608486031215612ce157600080fd5b833567ffffffffffffffff811115612cf857600080fd5b84016101608187031215612d0b57600080fd5b95602085013595506040909401359392505050565b7f4e487b7100000000000000000000000000000000000000000000000000000000600052604160045260246000fd5b604051601f82017fffffffffffffffffffffffffffffffffffffffffffffffffffffffffffffffe016810167ffffffffffffffff81118282101715612d9657612d96612d20565b604052919050565b60008060408385031215612db157600080fd5b823567ffffffffffffffff80821115612dc957600080fd5b818501915085601f830112612ddd57600080fd5b8135602082821115612df157612df1612d20565b8160051b9250612e02818401612d4f565b8281529284018101928181019089851115612e1c57600080fd5b948201945b84861015612e465785359350612e3684612bc1565b8382529482019490820190612e21565b9650612e559050878201612be3565b9450505050509250929050565b60008083601f840112612e7457600080fd5b50813567ffffffffffffffff811115612e8c57600080fd5b6020830191508360208260051b8501011115612c5257600080fd5b60008060008060008060608789031215612ec057600080fd5b863567ffffffffffffffff80821115612ed857600080fd5b612ee48a838b01612e62565b90985096506020890135915080821115612efd57600080fd5b612f098a838b01612e62565b90965094506040890135915080821115612f2257600080fd5b50612f2f89828a01612e62565b979a9699509497509295939492505050565b60008060408385031215612f5457600080fd5b8235612f5f81612bc1565b946020939093013593505050565b600082601f830112612f7e57600080fd5b813567ffffffffffffffff811115612f9857612f98612d20565b612fc960207fffffffffffffffffffffffffffffffffffffffffffffffffffffffffffffffe0601f84011601612d4f565b818152846020838601011115612fde57600080fd5b816020850160208301376000918101602001919091529392505050565b6000806040838503121561300e57600080fd5b823561301981612bc1565b9150602083013567ffffffffffffffff81111561303557600080fd5b61304185828601612f6d565b9150509250929050565b60005b8381101561306657818101518382015260200161304e565b50506000910152565b6000815180845261308781602086016020860161304b565b601f017fffffffffffffffffffffffffffffffffffffffffffffffffffffffffffffffe0169290920160200192915050565b6020815260006109f7602083018461306f565b600080600080606085870312156130e257600080fd5b84356130ed81612bc1565b935060208501359250604085013567ffffffffffffffff81111561311057600080fd5b61311c87828801612c10565b95989497509550505050565b60008060008060008060008060a0898b03121561314457600080fd5b883561314f81612bc1565b9750602089013561315f81612bc1565b9650604089013567ffffffffffffffff8082111561317c57600080fd5b6131888c838d01612e62565b909850965060608b01359150808211156131a157600080fd5b6131ad8c838d01612e62565b909650945060808b01359150808211156131c657600080fd5b506131d38b828c01612c10565b999c989b5096995094979396929594505050565b600080604083850312156131fa57600080fd5b823561320581612bc1565b9150602083013561321581612bc1565b809150509250929050565b60008060008060008060a0878903121561323957600080fd5b863561324481612bc1565b9550602087013561325481612bc1565b94506040870135935060608701359250608087013567ffffffffffffffff81111561327e57600080fd5b612f2f89828a01612c10565b60006020828403121561329c57600080fd5b813567ffffffffffffffff8111156132b357600080fd5b6132bf84828501612f6d565b949350505050565b600060208083016020845280855180835260408601915060408160051b87010192506020870160005b8281101561333c577fffffffffffffffffffffffffffffffffffffffffffffffffffffffffffffffc088860301845261332a85835161306f565b945092850192908501906001016132f0565b5092979650505050505050565b7f4e487b7100000000000000000000000000000000000000000000000000000000600052603260045260246000fd5b60008083357fffffffffffffffffffffffffffffffffffffffffffffffffffffffffffffffe18436030181126133ad57600080fd5b83018035915067ffffffffffffffff8211156133c857600080fd5b602001915036819003821315612c5257600080fd5b7f4e487b7100000000000000000000000000000000000000000000000000000000600052601160045260246000fd5b8181038181111561087f5761087f6133dd565b7f4e487b7100000000000000000000000000000000000000000000000000000000600052603160045260246000fd5b8082018082111561087f5761087f6133dd565b60007fffffffffffffffffffffffffffffffffffffffffffffffffffffffffffffffff8203613492576134926133dd565b5060010190565b6000602082840312156134ab57600080fd5b5051919050565b7f4e487b7100000000000000000000000000000000000000000000000000000000600052601260045260246000fd5b6000826134f0576134f06134b2565b500490565b600082613504576135046134b2565b500690565b808202811582820484141761087f5761087f6133dd565b60008183548391508460005260208060002060005b8381101561356757815473ffffffffffffffffffffffffffffffffffffffff1685529382019360019182019101613535565b50929695505050505050565b6000825161358581846020870161304b565b9190910192915050565b7f4e487b7100000000000000000000000000000000000000000000000000000000600052602160045260246000fdfea26469706673582212202d41800d8ace020475292b406bd2690fa0ff332d07749a998d06bb80649d92d064736f6c63430008170033",
  "linkReferences": {},
  "deployedLinkReferences": {}
}